:100000000C942A000C9447000C9447000C94470071
:100010000C94FC090C94D5090C94230A0C944A0AFC
:100020000C94710A0C94980A0C94AE090C948709EC
:100030000C9447000C9447000C9447000C94470024
:100040000C9447000C9447000C9447000C94470014
:100050000C94470011241FBECFE5D8E0DEBFCDBF12
:1000600010E0A0E6B0E0ECE7FAE102C005900D92E6
:10007000AE36B107D9F720E0AEE6B0E001C01D9280
:10008000A63DB207E1F70E9440080C943C0D0C9489
:100090000000FC010FB6F8946091D2007091D3007B
:1000A0008091D4009091D5000FBE309721F06083ED
:1000B0007183828393830895DF92EF92FF920F936F
:1000C0001F93CF93DF93CDB7DEB72E970FB6F8947B
:1000D000DEBF0FBECDBF8C01D62EE42E80E28C8316
:1000E00084E08D8318861F821C861B861A861986DB
:1000F0001E82198280E48A83CE0101960E94DB0869
:10010000FF24F394FE86DD86BE01635F7F4FC80146
:100110000E945B08FE86ED86BE01635F7F4FC801CB
:100120000E945B082E960FB6F894DEBF0FBECDBFBF
:10013000DF91CF911F910F91FF90EF90DF90089585
:100140004BB3982F907F292F30E035952795942F2A
:100150009578292B24602BBBE3EDF0E33197F1F781
:1001600000C000009BB39B7F9BBBEFE4F3EC319797
:10017000F1F700C000002BB38F7090E0880F991F3B
:10018000880F991F880F991F922F9578892B84606B
:100190008BBB83ED90E30197F1F700C000008BB3B8
:1001A0008B7F8BBBEFE4F3EC3197F1F700C00000DD
:1001B000089587E893E10197F1F700C000008BB341
:1001C0008B7F8BBB82E00E94A0008CE00E94A0008D
:1001D00081E00E94A00088E20E94A0008FE00E94BF
:1001E000A00008951F93CF93DF93CDB7DEB76C9730
:1001F0000FB6F894DEBF0FBECDBF11E019831C828D
:1002000080E48D83188619861A8685E08B871C8684
:100210001D861E861F86188A198A1A8A1C8F1B8EB5
:10022000BE01655E7F4F80E390E00E945B081C8FFB
:100230001B8FBE01655E7F4F80E390E00E945B08EC
:100240001C8F82E08B8FBE01655E7F4F80E390E064
:100250000E945B081C8F83E08B8FBE01655E7F4F21
:1002600080E390E00E945B08CE0101960E942C0979
:100270006C960FB6F894DEBF0FBECDBFDF91CF9165
:100280001F910895EF92FF920F931F93813099F47D
:1002900041E060E080E390E00E94B10883EC99E0E7
:1002A0000197F1F700C0000040E060E080E390E0DB
:1002B0000E94B1083EC0823099F441E061E080E3E1
:1002C00090E00E94B10883EC99E00197F1F700C03B
:1002D000000040E061E080E390E00E94B10829C0A6
:1002E000833099F441E062E080E390E00E94B1083D
:1002F00083EC99E00197F1F700C0000040E062E074
:1003000080E390E00E94B10814C0843091F441E091
:1003100063E080E390E00E94B10883EC99E00197EC
:10032000F1F700C0000040E063E080E390E00E944D
:10033000B10888B785FFFDCF806288BF1DBC1CBC9B
:100340008EB58F7B8EBD28B725FFFDCF96B547B5FF
:1003500050E0542F4427052E000C660B770B7A01D2
:100360008B01E92AC801B701206228BF0E94310B26
:1003700020E034E244EF55E40E94BF0A20E030E878
:100380004BEA53E40E94E80B20E030E040E05FE3FA
:100390000E94E80B20E030E048EC52E40E94E80BB9
:1003A0002EB520642EBD1F910F91FF90EF90089500
:1003B0001F93CF93DF9300D0CDB7DEB711E0198341
:1003C0001A83BE016F5F7F4F89E390E00E945B0854
:1003D00082E089831A83BE016F5F7F4F89E390E0DB
:1003E0000E945B0883E089831A83BE016F5F7F4FA1
:1003F00089E390E00E945B0884E089831A83BE0150
:100400006F5F7F4F89E390E00E945B0885E08983FE
:100410001A83BE016F5F7F4F89E390E00E945B0803
:1004200086E089831A83BE016F5F7F4F89E390E086
:100430000E945B080E94D9000F900F90DF91CF912E
:100440001F91089582E00E94420120E030E040E5E3
:1004500051E40E94E30B181624F486E480937000A4
:1004600002C01092700080E00E94420120E030E063
:1004700040E551E40E94E30B181624F482E58093D2
:100480006E0002C010926E0081E00E94420120E0E6
:1004900030E040E551E40E94E30B181624F48CE4AC
:1004A00080936F00089510926F000895CF93C82F26
:1004B0000E94C90C6C2F70E00E94550CCF910895DA
:1004C000663429F48C3419F492E590936400663410
:1004D00029F4863419F496E490936400663429F480
:1004E000823419F492E490936400663429F48235DE
:1004F00019F49CE490936400623429F4863419F46E
:1005000092E490936400623429F4823419F496E4FE
:1005100090936400623429F4823519F492E5909343
:100520006400623429F48C3419F49CE490936400E0
:10053000623529F4863419F492E5909364006235AB
:1005400029F4823419F49CE490936400623529F410
:10055000823519F496E490936400623529F48C3462
:1005600019F492E4909364006C3429F4863419F4FD
:100570009CE4909364006C3429F4823419F492E57D
:10058000909364006C3429F4823519F492E49093CA
:1005900064006C3429F48C3419F486E4809364008C
:1005A000809164000895823541F08C3441F08634A6
:1005B00041F0823441F486E408958CE4089582E5A4
:1005C000089582E4089582E50895873531F08E34E8
:1005D00031F0833531F48EE4089585E4089583E5A0
:1005E000089587E50895AC0190E007C0FA01E90F8E
:1005F000F11D2081261729F09F5F9430B8F38FEF0B
:100600000895892F0895CF93C62F663469F4682F13
:1006100089E690E00E94F302E82FF0E0EB59FF4FEB
:1006200080818093C10049C0623479F4682F89E6E3
:1006300090E00E94F302E82FF0E0EB59FF4F808139
:100640000E94D3028093C10038C06235E9F48E3431
:1006500011F0833569F4682F89E690E00E94F30277
:10066000E82FF0E0ED59FF4F80818093C10025C055
:10067000873521F486E48093C1001FC08534E9F4F6
:1006800082E48093C10019C06C34B9F48E3421F433
:100690008CE48093C10011C0833521F482E58093FE
:1006A000C1000BC0853421F486E48093C10005C0ED
:1006B000873519F482E48093C1006C2F8091C100CA
:1006C0000E94600280936400CF910895CF93C82F59
:1006D000663469F4682F85E690E00E94F302E82F03
:1006E000F0E0E759FF4F80818093C00040C0623442
:1006F00031F48C2F0E94E5028093C00038C062352F
:10070000E9F48E3411F0833569F46C2F85E690E0BE
:100710000E94F302E82FF0E0E959FF4F80818093B7
:10072000C00025C0863421F487E58093C0001FC037
:100730008234E9F485E48093C00019C06C34B9F4C4
:100740008C3421F48EE48093C00011C0823521F4F2
:1007500083E58093C0000BC0863421F485E4809348
:10076000C00005C0823419F487E58093C000CF91A2
:1007700008958E3431F4E1E7F0E080818F5F80836B
:100780000895833531F4E1E7F0E080818150808382
:100790000895853431F4E1E7F0E081818F5F818352
:1007A0000895873529F4E1E7F0E081818150818364
:1007B000089518162CF0882314F48B5F089580E0B8
:1007C00008955F926F927F928F929F92AF92BF92A5
:1007D000CF92DF92EF92FF920F931F93CF93DF930D
:1007E00000D000D0CDB7DEB719821A821B821C82DE
:1007F0000F2EF1E7EF2EF0E0FF2EF02DD7018C91B8
:100800000E94D903182FF70181810E94D903212F5B
:1008100030E0A901440F551F440F551F240F351F09
:1008200029553F4FF901E80FF11D808181119AC2CE
:100830000E94220210E0712C00E01FC2E12FF0E0C4
:10084000E259FF4F8081882309F416C26091640049
:100850000E9466038091C0008E3409F07FC00F2E85
:10086000F1E7EF2EF0E0FF2EF02DD7019C9081E014
:10087000890D0E94D903D82EF70181810E94D903E6
:10088000E82EF12C8D2D90E0FC01EE0FFF1FEE0FF6
:10089000FF1FE80FF91FE955FF4FEE0DFF1D808187
:1008A00081110AC0E1E0F0E0EC0FFD1FE00FF11D47
:1008B0008EE480830F5FE0C1882309F4DDC180905E
:1008C0007400A82CB12CC501880F991F9C012B58CE
:1008D0003F4F6901D9018C910E94D903682EF6011E
:1008E00081810E94D903262D30E0A901440F551FB4
:1008F000440F551F240F351F29553F4FF901E80FAD
:10090000F11D8081813031F5892D0E94D903F5E0F8
:100910008F9FC0011124FC01E955FF4FEE0DFF1D13
:1009200082E08083F60110821182EFEFE80DE09300
:100930007400F0E0EE0FFF1FEB58FF4F8081A1E73E
:10094000B0E08C93818111968C9319821A821B825C
:1009500000E096C1823009F08FC183C1853409F06F
:100960007FC00F2EF1E7CF2EF0E0DF2EF02DD60165
:100970008C910E94D903E82EF12CF601918081E040
:10098000890D0E94D9039701220F331F220F331FB5
:100990002E0D3F1D29553F4FF901E80FF11D8081B4
:1009A00081110AC0E1E0F0E0EC0FFD1FE00FF11D46
:1009B00085E480830F5F60C1882309F45DC1809066
:1009C0007400A82CB12CC501880F991F9C012B58CD
:1009D0003F4F6901D9018C910E94D903682EF6011D
:1009E00081810E94D903262D30E0A901440F551FB3
:1009F000440F551F240F351F29553F4FF901E80FAC
:100A0000F11D8081813041F5892D0E94D90395E047
:100A10009E9D90019F9D300D112429553F4FF90156
:100A2000E80FF11D82E08083F60110821182EFEF62
:100A3000E80DE0937400F0E0EE0FFF1FEB58FF4F5E
:100A40008081A1E7B0E08C93818111968C9319820B
:100A50001A821B8200E014C1823009F00DC104C16A
:100A6000873509F07EC00F2EF1E7CF2EF0E0DF2EA4
:100A7000F02DD6018C910E94D903E82EF12CF601BD
:100A800081810E94D903C82ED12C960121503109B1
:100A9000C701880F991F880F991F8E0D9F1D8955BB
:100AA0009F4FFC01E20FF31F808181110AC0E1E03A
:100AB000F0E0EC0FFD1FE00FF11D87E580830F5F75
:100AC000DBC0882309F4D8C060907400862C912C78
:100AD000C401880F991F9C012B583F4F5901D90120
:100AE0008C910E94D903582EF50181810E94D9036F
:100AF000252D30E0A901440F551F440F551F240F29
:100B0000351F29553F4FF901E80FF11D80818130D4
:100B100021F585E08E9DF0018F9DF00D1124E955A2
:100B2000FF4FEC0DFD1D82E08083F50110821182E4
:100B3000EFEFE60DE0937400F0E0EE0FFF1FEB58CF
:100B4000FF4F8081A1E7B0E08C93818111968C9357
:100B500019821A821B8200E093C0823009F08CC097
:100B600086C0833509F088C00F2EF1E7EF2EF0E044
:100B7000FF2EF02DD7018C910E94D903C82ED12CC5
:100B80005601B1E0AB1AB108F70181810E94D90387
:100B9000E82EF12CF501EE0FFF1FEE0FFF1FEA0DFF
:100BA000FB1DE955FF4FEE0DFF1D808181110AC02D
:100BB000E1E0F0E0EC0FFD1FE00FF11D83E5808325
:100BC0000F5F5AC0882309F457C060907400862CC8
:100BD000912CC401880F991F9C012B583F4F59013C
:100BE000D9018C910E94D903582EF50181810E9470
:100BF000D903252D30E0A901440F551F440F551F7F
:100C0000240F351F29553F4FF901E80FF11D808151
:100C1000813021F585E08C9DF0018D9DF00D112432
:100C2000E955FF4FEE0DFF1D82E08083F501108234
:100C30001182EFEFE60DE0937400F0E0EE0FFF1F7E
:100C4000EB58FF4F8081A1E7B0E08C938181119632
:100C50008C9319821A821B8200E012C0823061F4E8
:100C600009C07724739408C07724739405C077244F
:100C7000739402C0772473941F5F133008F4DECDA1
:100C800082E00E94420120E030E048E452E40E9409
:100C9000E30B181624F481E080937300DDC180E03B
:100CA0000E94420120E030E048E452E40E94E30B5D
:100CB000181624F481E080937300CEC181E00E9475
:100CC000420120E030E048E452E40E94E30B1816B1
:100CD00024F481E080937300BFC1711004C0898146
:100CE000882309F4B9C1802F0E945602E1E0F0E0A8
:100CF000EC0FFD1FE80FF11D80818093C000609113
:100D000064000E94030301E710E0D8018C910E9467
:100D1000D903E82EF12CF80181810E94D9039701B3
:100D2000220F331F220F331F2E0D3F1D29553F4F1A
:100D3000F901E80FF11D81E080838091C0000E94DD
:100D4000B903E0917400EF5FE0937400F0E0D80124
:100D50008C91EE0FFF1FEB58FF4F808311968C9103
:100D600081837AC1813009F077C10E94220210E0AC
:100D700000E0CAC0E12FF0E0E259FF4F80818823F4
:100D800009F4C1C0609164000E9466038091C000B4
:100D90008E3461F50F2EF1E7CF2EF0E0DF2EF02D2F
:100DA000F60180818F5F0E94D903F82ED60111963B
:100DB0008C910E94D9032F2D30E0A901440F551FBB
:100DC000440F551F240F351F29553F4FF901E80FD8
:100DD000F11D8081811197C0E1E0F0E0EC0FFD1F73
:100DE000E00FF11D8EE480830F5F8DC0853461F5C7
:100DF0000F2EF1E7CF2EF0E0DF2EF02DF6018081EF
:100E00000E94D903F82ED60111968C918F5F0E9413
:100E1000D9032F2D30E0A901440F551F440F551F52
:100E2000240F351F29553F4FF901E80FF11D80812F
:100E3000811169C0E1E0F0E0EC0FFD1FE00FF11D52
:100E400085E480830F5F5FC0833569F50F2EF1E77E
:100E5000CF2EF0E0DF2EF02DF60180810E94D90325
:100E6000E82EF12CF1E0EF1AF108D60111968C91E1
:100E70000E94D9039701220F331F220F331F2E0D1B
:100E80003F1D29553F4FF901E80FF11D8081811168
:100E90003AC0E1E0F0E0EC0FFD1FE00FF11D83E54B
:100EA00080830F5F30C0873571F50F2EF1E7CF2EAD
:100EB000F0E0DF2EF02DF60180810E94D903F82E9C
:100EC000D60111968C910E94D90390E09C0121508B
:100ED00031098F2D90E0AC01440F551F440F551F71
:100EE000840F951F89559F4FFC01E20FF31F8081EE
:100EF000811109C0E1E0F0E0EC0FFD1FE00FF11DF2
:100F000087E580830F5F1F5F133008F433CF82E0E3
:100F10000E94420120E030E048E452E40E94E30BEA
:100F2000181624F481E08093730096C080E00E943C
:100F3000420120E030E048E452E40E94E30B18163E
:100F400024F481E08093730087C081E00E94420115
:100F500020E030E048E452E40E94E30B181624F449
:100F600081E08093730078C08981882309F440C0B0
:100F7000802F0E945602E1E0F0E0EC0FFD1FE80F29
:100F8000F11D80818093C000609164000E94030382
:100F900001E710E0F80180810E94D903E82EF12CCE
:100FA000D80111968C910E94D9039701220F331F0B
:100FB000220F331F2E0D3F1D29553F4FF901E80F1A
:100FC000F11D81E080838091C0000E94B903E0910F
:100FD0007400EF5FE0937400F0E0D8018C91EE0FA5
:100FE000FF1FEB58FF4F808311968C91818334C093
:100FF00001E710E0F80180810E94D903E82EF12C6E
:10100000D80111968C910E94D9039701220F331FAA
:10101000220F331F2E0D3F1D29553F4FF901E80FB9
:10102000F11D82E08083E0917400AE2FB0E0AA0F42
:10103000BB1FAB58BF4F1C9211961C92E150E0931E
:101040007400F0E0EE0FFF1FEB58FF4F8081D801D6
:101050008C93818111968C930F900F900F900F902D
:10106000DF91CF911F910F91FF90EF90DF90CF9084
:10107000BF90AF909F908F907F906F905F900895FA
:1010800080E090E00E944900CB010E94CE0C0E94BB
:10109000D80145E064E086E390E00E945C000E9495
:1010A000F20002C00E94E103809173008823D1F313
:1010B00080E090E00895FC01DB0111962C911197DE
:1010C000211120C041815C9181E090E0BC01052E9E
:1010D00002C0660F771F0A94E2F730E002C0220FC9
:1010E000331F5A95E2F7362F30953423232B218373
:1010F0000C9002C0880F991F0A94E2F7928189230D
:10110000828308952230C1F481E090E09C010C902C
:1011100002C0220F331F0A94E2F720953181232366
:1011200021830C9002C0880F991F0A94E2F78095E2
:10113000928189238283089541815C9181E090E0CE
:10114000052E02C0880F991F0A94E2F730E002C012
:10115000220F331F5A95E2F780958423282B218391
:101160000895FC01928121E030E0062E02C0220F9A
:10117000331F0A94E2F750E002C0440F551F6A95EE
:10118000E2F720952923422B42830895CF93DF93E2
:1011900000D0CDB7DEB781E08A8383E08983BE01CA
:1011A0006F5F7F4F86E390E00E945B080F900F9087
:1011B000DF91CF910895CF93DF93EC010E94C60891
:1011C0008F81882391F08FB780688FBF8A859B8538
:1011D0009093CF008093CE00888599859093C50029
:1011E0008093C40089B7816089BF8E818CBF83B72B
:1011F000846683BF8D8192B7892B82BFDF91CF91A7
:1012000008951F93CF93DF9300D0CDB7DEB711E0E1
:101210001A8385E08983BE016F5F7F4F80E390E092
:101220000E945B081A8384E08983BE016F5F7F4F51
:1012300080E390E00E945B081A8286E08983BE0109
:101240006F5F7F4F80E390E00E945B080F900F90EC
:10125000DF91CF911F910895FC0181898823F1F0DE
:101260008FB780688FBF828993899093C9008093DC
:10127000C800248935893093D1002093D000909301
:10128000CB008093CA00868997899093C70080938A
:10129000C60089B79189837C892B89BF3FB580853A
:1012A0003F73382B3FBD81853F7C382B3FBD2EB52A
:1012B00083812F77282B2EBD94812F7B292B2EBD48
:1012C0009285287F292B2EBD84858DBD83858CBD7D
:1012D00086858BBD85858ABD808989BD878588BDCA
:1012E00087813C7F8370382B3FBD9781969596957B
:1012F0009370892F90E0880F991F880F991F880F8E
:10130000991F277E822B8EBD0E94010908951F928E
:101310000F920FB60F9211242F933F934F935F9329
:101320006F937F938F939F93AF93BF93EF93FF93AD
:10133000E091C400F091C5000995FF91EF91BF9134
:10134000AF919F918F917F916F915F914F913F915D
:101350002F910F900FBE0F901F9018951F920F9214
:101360000FB60F9211242F933F934F935F936F9378
:101370007F938F939F93AF93BF93EF93FF93E091EE
:10138000CE00F091CF000995FF91EF91BF91AF9101
:101390009F918F917F916F915F914F913F912F918D
:1013A0000F900FBE0F901F9018951F920F920FB6BF
:1013B0000F9211242F933F934F935F936F937F93DB
:1013C0008F939F93AF93BF93EF93FF93E091CC00E4
:1013D000F091CD000995FF91EF91BF91AF919F9151
:1013E0008F917F916F915F914F913F912F910F90CE
:1013F0000FBE0F901F9018951F920F920FB60F926D
:1014000011242F933F934F935F936F937F938F9309
:101410009F93AF93BF93EF93FF93E091C200F0913E
:10142000C3000995FF91EF91BF91AF919F918F916B
:101430007F916F915F914F913F912F910F900FBED0
:101440000F901F9018951F920F920FB60F921124B4
:101450002F933F934F935F936F937F938F939F93BC
:10146000AF93BF93EF93FF93E091C800F091C90051
:101470000995FF91EF91BF91AF919F918F917F91CE
:101480006F915F914F913F912F910F900FBE0F90F1
:101490001F9018951F920F920FB60F9211242F9341
:1014A0003F934F935F936F937F938F939F93AF93EC
:1014B000BF93EF93FF93E091D000F091D100099595
:1014C000FF91EF91BF91AF919F918F917F916F911C
:1014D0005F914F913F912F910F900FBE0F901F90F2
:1014E00018951F920F920FB60F9211242F933F93CE
:1014F0004F935F936F937F938F939F93AF93BF931C
:10150000EF93FF93E091C600F091C7000995FF911A
:10151000EF91BF91AF919F918F917F916F915F916B
:101520004F913F912F910F900FBE0F901F901895E4
:101530001F920F920FB60F9211242F933F934F9348
:101540005F936F937F938F939F93AF93BF93EF932B
:10155000FF93E091CA00F091CB000995FF91EF91C4
:10156000BF91AF919F918F917F916F915F914F91BB
:101570003F912F910F900FBE0F901F9018950E94D2
:10158000D30A0C94A90B0E94A20B58F00E949B0B4B
:1015900040F029F45F3F29F00C94920B51110C9408
:1015A000DD0B0C94980B0E94BA0B68F39923B1F3EE
:1015B000552391F3951B550BBB27AA276217730779
:1015C000840738F09F5F5F4F220F331F441FAA1F0D
:1015D000A9F335D00E2E3AF0E0E832D091505040C9
:1015E000E695001CCAF72BD0FE2F29D0660F771F77
:1015F000881FBB1F261737074807AB07B0E809F05D
:10160000BB0B802DBF01FF2793585F4F3AF09E3FE1
:10161000510578F00C94920B0C94DD0B5F3FE4F3D2
:10162000983ED4F3869577956795B795F7959F5F24
:10163000C9F7880F911D9695879597F90895E1E070
:10164000660F771F881FBB1F621773078407BA07CF
:1016500020F0621B730B840BBA0BEE1F88F7E0952A
:101660000895E89409C097FB3EF490958095709595
:1016700061957F4F8F4F9F4F9923A9F0F92F96E9DE
:10168000BB279395F695879577956795B795F11153
:10169000F8CFFAF4BB0F11F460FF1BC06F5F7F4FF0
:1016A0008F4F9F4F16C0882311F096E911C0772302
:1016B00021F09EE8872F762F05C0662371F096E80B
:1016C000862F70E060E02AF09A95660F771F881FDA
:1016D000DAF7880F9695879597F90895990F00087E
:1016E000550FAA0BE0E8FEEF16161706E807F907F4
:1016F000C0F012161306E407F50798F0621B730B8F
:10170000840B950B39F40A2661F0232B242B252B0F
:1017100021F408950A2609F4A140A6958FEF811DB2
:10172000811D089597F99F6780E870E060E0089553
:101730009FEF80EC089500240A94161617061806E9
:101740000906089500240A941216130614060506C5
:101750000895092E0394000C11F4882352F0BB0F56
:1017600040F4BF2B11F460FF04C06F5F7F4F8F4FB9
:101770009F4F089557FD9058440F551F59F05F3FF4
:1017800071F04795880F97FB991F61F09F3F79F0A3
:1017900087950895121613061406551FF2CF469525
:1017A000F1DF08C0161617061806991FF1CF8695A7
:1017B0007105610508940895E894BB27662777278B
:1017C000CB0197F908950E946E0B08F48FEF0895EE
:1017D0000E94FB0B0C94A90B0E949B0B38F00E94FB
:1017E000A20B20F0952311F00C94920B0C94980B03
:1017F00011240C94DD0B0E94BA0B70F3959FC1F37A
:10180000950F50E0551F629FF001729FBB27F00DAE
:10181000B11D639FAA27F00DB11DAA1F649F662703
:10182000B00DA11D661F829F2227B00DA11D621F52
:10183000739FB00DA11D621F839FA00D611D221F0C
:10184000749F3327A00D611D231F849F600D211DF0
:10185000822F762F6A2F11249F5750409AF0F1F073
:1018600088234AF0EE0FFF1FBB1F661F771F881FDC
:1018700091505040A9F79E3F510580F00C94920B77
:101880000C94DD0B5F3FE4F3983ED4F38695779597
:101890006795B795F795E7959F5FC1F7FE2B880F82
:1018A000911D9695879597F9089597FB072E16F445
:1018B000009407D077FD09D00E94690C07FC05D081
:1018C0003EF4909581959F4F0895709561957F4F57
:1018D0000895AA1BBB1B51E107C0AA1FBB1FA61777
:1018E000B70710F0A61BB70B881F991F5A95A9F7C9
:1018F00080959095BC01CD0108958F929F92AF92F3
:10190000BF92CF92DF92EF92FF92CF93DF93EC01E1
:10191000688179818A819B816115710581059105B5
:1019200021F464E279ED8BE597E02DE133EF41E0BE
:1019300050E00E94D90C49015A019B01AC01A7EA71
:10194000B1E40E94F80C6B017C01ACEEB4EFA50190
:1019500094010E94060DDC01CB018C0D9D1DAE1D76
:10196000BF1DB7FF03C00197A109B04888839983C1
:10197000AA83BB839F77DF91CF91FF90EF90DF9099
:10198000CF90BF90AF909F908F9008950E947D0C54
:10199000089580E690E00E947D0C0895A0E0B0E0FC
:1019A0008093600090936100A0936200B093630005
:1019B0000895052E97FB1EF400940E94F00C57FD2D
:1019C00007D00E940B0D07FC03D04EF40C94F00CD2
:1019D00050954095309521953F4F4F4F5F4F08955B
:1019E00090958095709561957F4F8F4F9F4F08958B
:1019F0000E942D0DA59F900DB49F900DA49F800D6A
:101A0000911D11240895B7FF0C94F80C0E94F80C56
:101A1000821B930B0895A1E21A2EAA1BBB1BFD018A
:101A20000DC0AA1FBB1FEE1FFF1FA217B307E407BD
:101A3000F50720F0A21BB30BE40BF50B661F771F15
:101A4000881F991F1A9469F76095709580959095F5
:101A50009B01AC01BD01CF010895A29FB001B39FCE
:101A6000C001A39F700D811D1124911DB29F700DA7
:0C1A7000811D1124911D0895F894FFCFF2
:0E1A7C000100000046524C464245574E5300B2
:00000001FF
