:100000000C942A000C9447000C9447000C94470071
:100010000C9425040C94FE030C944C040C9473046F
:100020000C949A040C94C1040C94D7030C94B00360
:100030000C9447000C9447000C9447000C94470024
:100040000C9447000C9447000C9447000C94470014
:100050000C94470011241FBECFE5D8E0DEBFCDBF12
:1000600010E0A0E6B0E0EEE5F4E102C005900D92EC
:10007000A637B107D9F720E0A6E7B0E001C01D928E
:10008000AA38B207E1F70E9480020C942D0A0C9462
:100090000000FC010FB6F894609186007091870013
:1000A00080918800909189000FBE309721F0608385
:1000B00071838283938308954BB3982F907F292F68
:1000C00030E035952795942F9578292B24602BBB0C
:1000D000E3EDF0E33197F1F700C000009BB39B7FA5
:1000E0009BBBEFE4F3EC3197F1F700C000002BB3BA
:1000F0008F7090E0880F991F880F991F880F991FA4
:10010000922F9578892B84608BBB83ED90E30197C8
:10011000F1F700C000008BB38B7F8BBBEFE4F3ECF7
:100120003197F1F700C00000089587E893E1019747
:10013000F1F700C000008BB38B7F8BBB82E00E9485
:100140005C008CE00E945C0081E00E945C0088E220
:100150000E945C008FE00E945C00089590E4699F1B
:10016000800D112480580E945C0008950F931F9306
:10017000CF93DF93EC0111E000E04FC02BB322607E
:100180002BBB9081907F892F90E09595879527785C
:10019000822B84608BBB83ED90E30197F1F700C065
:1001A00000008BB38B7F8BBB8FE493EC0197F1F74F
:1001B00000C000002BB322602BBB90819F70892F61
:1001C00090E0880F991F880F991F880F991F277833
:1001D000822B84608BBB83ED90E30197F1F700C025
:1001E00000008BB38B7F8BBB8FE493EC0197F1F70F
:1001F00000C000001F5F103129F461E080E00E9420
:10020000AE000AC0103241F481E00E945C0060E060
:1002100080E00E94AE0010E00F5FFE01E00FF11DD4
:1002200080818111ABCFDF91CF911F910F91089504
:100230000F931F93CF93DF93CDB7DEB760970FB6C1
:10024000F894DEBF0FBECDBF9F938F9384E690E0FE
:100250009F938F938E010F5F1F4F1F930F930E94E9
:10026000E006C8010E94B6000F900F900F900F900B
:100270000F900F9060960FB6F894DEBF0FBECDBF03
:10028000DF91CF911F910F9108951F93CF93DF932B
:10029000CDB7DEB76C970FB6F894DEBF0FBECDBFFB
:1002A00011E019831C8280E48D83188619861A86D2
:1002B00084E08B871C861D861E861F86188A198AF5
:1002C0001A8A1C8F1B8EBE01655E7F4F80E390E013
:1002D0000E94BF021C8F1B8FBE01655E7F4F80E3B3
:1002E00090E00E94BF021C8F82E08B8FBE01655E92
:1002F0007F4F80E390E00E94BF021C8F83E08B8FD2
:10030000BE01655E7F4F80E390E00E94BF02CE0198
:1003100001960E9455036C960FB6F894DEBF0FBE8F
:10032000CDBFDF91CF911F9108950F931F9381301F
:1003300099F441E060E080E390E00E94150383ECD3
:1003400099E00197F1F700C0000040E060E080E331
:1003500090E00E9415033EC0823099F441E061E0D4
:1003600080E390E00E94150383EC99E00197F1F798
:1003700000C0000040E061E080E390E00E941503CF
:1003800029C0833099F441E062E080E390E00E946C
:10039000150383EC99E00197F1F700C0000040E0FD
:1003A00062E080E390E00E94150314C0843091F471
:1003B00041E063E080E390E00E94150383EC99E064
:1003C0000197F1F700C0000040E063E080E390E0B7
:1003D0000E9415031DBC1CBC88B785FFFDCF96B5D8
:1003E00007B510E0102F0027012E000C220B330B55
:1003F000092B806288BF8EB58F7B8EBD88B785FF45
:10040000FDCF96B547B550E0542F4427052E000C7C
:10041000660B770B492B806288BFCB01BA01601B4A
:10042000710B820B930B0E94890520E034E244E7B4
:1004300057E40E94E80420E030E84BEA53E40E94CD
:10044000170620E030E040E05FE30E94170620E05E
:1004500030E048EC52E40E9417062EB520642EBD11
:100460000E945A05CB011F910F9108951F93CF93BE
:10047000DF9300D0CDB7DEB711E019831A83BE0138
:100480006F5F7F4F89E390E00E94BF0282E0898323
:100490001A83BE016F5F7F4F89E390E00E94BF0225
:1004A00083E089831A83BE016F5F7F4F89E390E009
:1004B0000E94BF0284E089831A83BE016F5F7F4F71
:1004C00089E390E00E94BF0285E089831A83BE0120
:1004D0006F5F7F4F89E390E00E94BF0286E08983CF
:1004E0001A83BE016F5F7F4F89E390E00E94BF02D5
:1004F0000E9495000F900F90DF91CF911F9108956A
:1005000080E090E00E944900CB010E94D5060E9445
:1005100036020E94450181E00E9495010E94180167
:100520002FEF88E09DE3215080409040E1F700C02C
:10053000000081E00E945C0082E00E9495010E9420
:1005400018012FEF88E09DE3215080409040E1F7B3
:1005500000C0000081E00E945C0083E00E949501E1
:100560000E9418012FEF88E09DE3215080409040C9
:10057000E1F700C0000081E00E945C00CCCFFC01EC
:10058000DB0111962C911197211120C041815C91C2
:1005900081E090E0BC01052E02C0660F771F0A942F
:1005A000E2F730E002C0220F331F5A95E2F7362FF0
:1005B00030953423232B21830C9002C0880F991F80
:1005C0000A94E2F792818923828308952230C1F44C
:1005D00081E090E09C010C9002C0220F331F0A942E
:1005E000E2F720953181232321830C9002C0880FEC
:1005F000991F0A94E2F78095928189238283089556
:1006000041815C9181E090E0052E02C0880F991F26
:100610000A94E2F730E002C0220F331F5A95E2F746
:1006200080958423282B21830895FC01928121E069
:1006300030E0062E02C0220F331F0A94E2F750E08A
:1006400002C0440F551F6A95E2F720952923422BDB
:10065000428308951F93CF93DF9300D0CDB7DEB7C9
:1006600011E01A8385E08983BE016F5F7F4F80E3CD
:1006700090E00E94BF021A8384E08983BE016F5F0D
:100680007F4F80E390E00E94BF021A8286E0898358
:10069000BE016F5F7F4F80E390E00E94BF020F902A
:1006A0000F90DF91CF911F910895FC0181898823DC
:1006B000F1F08FB780688FBF8289938990937D0016
:1006C00080937C00248935893093850020938400B1
:1006D00090937F0080937E008689978990937B001A
:1006E00080937A0089B79189837C892B89BF3FB534
:1006F00080853F73382B3FBD81853F7C382B3FBDC4
:100700002EB583812F77282B2EBD94812F7B292B0B
:100710002EBD9285287F292B2EBD84858DBD838596
:100720008CBD86858BBD85858ABD808989BD878581
:1007300088BD87813C7F8370382B3FBD978196951C
:1007400096959370892F90E0880F991F880F991FB5
:10075000880F991F277E822B8EBD0E942A03089541
:100760001F920F920FB60F9211242F933F934F9326
:100770005F936F937F938F939F93AF93BF93EF9309
:10078000FF93E0917800F09179000995FF91EF9146
:10079000BF91AF919F918F917F916F915F914F9199
:1007A0003F912F910F900FBE0F901F9018951F92A1
:1007B0000F920FB60F9211242F933F934F935F9395
:1007C0006F937F938F939F93AF93BF93EF93FF9319
:1007D000E0918200F09183000995FF91EF91BF9124
:1007E000AF919F918F917F916F915F914F913F91C9
:1007F0002F910F900FBE0F901F9018951F920F9280
:100800000FB60F9211242F933F934F935F936F93E3
:100810007F938F939F93AF93BF93EF93FF93E09159
:100820008000F09181000995FF91EF91BF91AF9108
:100830009F918F917F916F915F914F913F912F91F8
:100840000F900FBE0F901F9018951F920F920FB62A
:100850000F9211242F933F934F935F936F937F9346
:100860008F939F93AF93BF93EF93FF93E0917600A5
:10087000F09177000995FF91EF91BF91AF919F9112
:100880008F917F916F915F914F913F912F910F9039
:100890000FBE0F901F9018951F920F920FB60F92D8
:1008A00011242F933F934F935F936F937F938F9375
:1008B0009F93AF93BF93EF93FF93E0917C00F091F0
:1008C0007D000995FF91EF91BF91AF919F918F911D
:1008D0007F916F915F914F913F912F910F900FBE3C
:1008E0000F901F9018951F920F920FB60F92112420
:1008F0002F933F934F935F936F937F938F939F9328
:10090000AF93BF93EF93FF93E0918400F091850044
:100910000995FF91EF91BF91AF919F918F917F9139
:100920006F915F914F913F912F910F900FBE0F905C
:100930001F9018951F920F920FB60F9211242F93AC
:100940003F934F935F936F937F938F939F93AF9357
:10095000BF93EF93FF93E0917A00F0917B000995AC
:10096000FF91EF91BF91AF919F918F917F916F9187
:100970005F914F913F912F910F900FBE0F901F905D
:1009800018951F920F920FB60F9211242F933F9339
:100990004F935F936F937F938F939F93AF93BF9387
:1009A000EF93FF93E0917E00F0917F000995FF9116
:1009B000EF91BF91AF919F918F917F916F915F91D7
:1009C0004F913F912F910F900FBE0F901F90189550
:1009D0000E94FC040C94DD050E94D60558F00E948C
:1009E000CF0540F029F45F3F29F00C94C605511162
:1009F0000C9411060C94CC050E94EE0568F3992323
:100A0000B1F3552391F3951B550BBB27AA2762170A
:100A10007307840738F09F5F5F4F220F331F441F17
:100A2000AA1FA9F335D00E2E3AF0E0E832D091504B
:100A30005040E695001CCAF72BD0FE2F29D0660F38
:100A4000771F881FBB1F261737074807AB07B0E87B
:100A500009F0BB0B802DBF01FF2793585F4F3AF081
:100A60009E3F510578F00C94C6050C9411065F3F2B
:100A7000E4F3983ED4F3869577956795B795F79507
:100A80009F5FC9F7880F911D9695879597F90895EF
:100A9000E1E0660F771F881FBB1F6217730784078B
:100AA000BA0720F0621B730B840BBA0BEE1F88F79A
:100AB000E09508950E94F60588F09F5798F0B92FA9
:100AC0009927B751B0F0E1F0660F771F881F991F83
:100AD0001AF0BA95C9F714C0B13091F00E9410060F
:100AE000B1E008950C941006672F782F8827B85F1F
:100AF00039F0B93FCCF3869577956795B395D9F7DB
:100B00003EF490958095709561957F4F8F4F9F4FE4
:100B10000895E89409C097FB3EF4909580957095F0
:100B200061957F4F8F4F9F4F9923A9F0F92F96E939
:100B3000BB279395F695879577956795B795F111AE
:100B4000F8CFFAF4BB0F11F460FF1BC06F5F7F4F4B
:100B50008F4F9F4F16C0882311F096E911C077235D
:100B600021F09EE8872F762F05C0662371F096E866
:100B7000862F70E060E02AF09A95660F771F881F35
:100B8000DAF7880F9695879597F9089597F99F67F3
:100B900080E870E060E008959FEF80EC0895002405
:100BA0000A941616170618060906089500240A94D2
:100BB00012161306140605060895092E0394000C58
:100BC00011F4882352F0BB0F40F4BF2B11F460FFE7
:100BD00004C06F5F7F4F8F4F9F4F089557FD905810
:100BE000440F551F59F05F3F71F04795880F97FBF1
:100BF000991F61F09F3F79F08795089512161306AB
:100C00001406551FF2CF4695F1DF08C016161706D9
:100C10001806991FF1CF869571056105089408950E
:100C2000E894BB2766277727CB0197F908950E94A0
:100C30002A060C94DD050E94CF0538F00E94D605E7
:100C400020F0952311F00C94C6050C94CC051124CA
:100C50000C9411060E94EE0570F3959FC1F3950F59
:100C600050E0551F629FF001729FBB27F00DB11D30
:100C7000639FAA27F00DB11DAA1F649F6627B00DC0
:100C8000A11D661F829F2227B00DA11D621F739FA9
:100C9000B00DA11D621F839FA00D611D221F749FB7
:100CA0003327A00D611D231F849F600D211D822FFE
:100CB000762F6A2F11249F5750409AF0F1F0882325
:100CC0004AF0EE0FFF1FBB1F661F771F881F915052
:100CD0005040A9F79E3F510580F00C94C6050C9436
:100CE00011065F3FE4F3983ED4F3869577956795B8
:100CF000B795F795E7959F5FC1F7FE2B880F911D7C
:100D00009695879597F908958F929F92AF92BF928B
:100D1000CF92DF92EF92FF92CF93DF93EC01688145
:100D200079818A819B81611571058105910521F485
:100D300064E279ED8BE597E02DE133EF41E050E09F
:100D40000E94930949015A019B01AC01A7EAB1E451
:100D50000E94B2096B017C01ACEEB4EFA5019401D5
:100D60000E94C009DC01CB018C0D9D1DAE1DBF1D75
:100D7000B7FF03C00197A109B04888839983AA836C
:100D8000BB839F77DF91CF91FF90EF90DF90CF9063
:100D9000BF90AF909F908F9008950E948406089511
:100DA00080E690E00E9484060895A0E0B0E0809381
:100DB000600090936100A0936200B0936300089577
:100DC000AEE0B0E0E6EEF6E00C94D3090D891E89A2
:100DD00086E08C831A8309838FEF9FE79E838D8340
:100DE000AE01475E5F4F6F89788DCE0101960E94FC
:100DF0000207EF81F885E00FF11F10822E96E4E0E4
:100E00000C94EF09ABE0B0E0E8E0F7E00C94C50922
:100E10006C017B018A01FC0117821682838181FFAC
:100E2000CCC1CE0101963C01F6019381F70193FDFF
:100E3000859193FF81917F01882309F4BAC185329E
:100E400039F493FD859193FF81917F01853229F4D7
:100E5000B60190E00E94F908E7CF912C212C312CAB
:100E6000FFE1F315D8F08B3279F038F4803279F065
:100E70008332A1F4232D20611DC08D3261F08033B7
:100E800069F4232D216016C0832D8260382EE32D56
:100E9000E4603E2E2AC0F32DF8601DC037FC2DC043
:100EA00020ED280F2A3040F08E32B9F436FC81C193
:100EB000232D2064322E19C036FE06C08AE0989E8B
:100EC000200D1124922E11C0EAE02E9E200D112437
:100ED000222EF32DF0623F2E08C08C3621F4832D94
:100EE0008068382E02C0883641F4F70193FD859161
:100EF00093FF81917F018111B3CF982F9F7D9554EE
:100F0000933028F40C5F1F4F9FE399830DC0833605
:100F100031F0833771F0833509F059C021C0F801F1
:100F2000808189830E5F1F4F88248394912C530105
:100F300013C02801F2E04F0E511CF801A080B180CF
:100F400036FE03C0692D70E002C06FEF7FEFC50170
:100F50000E94EE084C018201F32DFF773F2E16C050
:100F6000280122E0420E511CF801A080B18036FE1B
:100F700003C0692D70E002C06FEF7FEFC5010E94D2
:100F8000E3084C01F32DF0683F2E820133FC1BC0B7
:100F9000822D90E088169906B0F4B60180E290E0C8
:100FA0000E94F9082A94F4CFF50137FC859137FEA9
:100FB00081915F01B60190E00E94F90821102A9406
:100FC00021E0821A91088114910471F7E8C08436F7
:100FD00011F0893641F5F80137FE07C06081718153
:100FE000828193810C5F1F4F08C060817181072E41
:100FF000000C880B990B0E5F1F4FF32DFF763F2ED1
:1010000097FF09C090958095709561957F4F8F4FA0
:101010009F4FF0683F2E2AE030E0A3010E9435097F
:10102000882E861845C0853731F4232D2F7EB22EA9
:101030002AE030E025C0932D997FB92E8F36C1F07C
:1010400018F4883579F0B5C0803719F0883721F069
:10105000B0C0E92FE061BE2EB4FE0DC0FB2DF460E0
:10106000BF2E09C034FE0AC0292F2660B22E06C04A
:1010700028E030E005C020E130E002C020E132E0AD
:10108000F801B7FE07C060817181828193810C5F96
:101090001F4F06C06081718180E090E00E5F1F4F9E
:1010A000A3010E943509882E8618FB2DFF773F2E5D
:1010B00036FE0DC0232D2E7FA22E891458F434FE47
:1010C0000BC032FC09C0832D8E7EA82E05C0B82C23
:1010D000A32C03C0B82C01C0B92CA4FE0FC0FE0184
:1010E000E80DF11D8081803321F49A2D997EA92E7F
:1010F00009C0A2FE06C0B394B39404C08A2D8678BA
:1011000009F0B394A3FC11C0A0FE06C0B21488F489
:10111000280C922C9B180EC0B21460F4B60180E229
:1011200090E00E94F908B394F7CFB21418F42B188A
:1011300002C0982C212CA4FE10C0B60180E390E0E0
:101140000E94F908A2FE17C0A1FC03C088E790E046
:1011500002C088E590E0B6010CC08A2D867859F06F
:10116000A1FE02C08BE201C080E2A7FC8DE2B601C5
:1011700090E00E94F908891438F4B60180E390E009
:101180000E94F9089A94F7CF8A94F301E80DF11DB3
:101190008081B60190E00E94F9088110F5CF2220ED
:1011A00009F442CEB60180E290E00E94F9082A9448
:1011B000F6CFF6018681978102C08FEF9FEF2B96C5
:1011C000E2E10C94E109FC010590615070400110CE
:1011D000D8F7809590958E0F9F1F0895FC01615060
:1011E000704001900110D8F7809590958E0F9F1F49
:1011F00008950F931F93CF93DF93FB01238121FD6C
:1012000003C08FEF9FEF2CC022FF16C0468157818D
:10121000248135814217530744F4A081B1819D0197
:101220002F5F3F4F318320838C93268137812F5F3F
:101230003F4F3783268314C08B01EC01FB010084F0
:10124000F185E02D0995892BE1F6D80116968D914F
:101250009C911797019617969C938E931697CE01A3
:10126000DF91CF911F910F910895FA01AA2728309D
:1012700051F1203181F1E8946F936E7F6E5F7F4F63
:101280008F4F9F4FAF4FB1E03ED0B4E03CD0670FDF
:10129000781F891F9A1FA11D680F791F8A1F911D32
:1012A000A11D6A0F711D811D911DA11D20D009F482
:1012B00068943F912AE0269F11243019305D3193C4
:1012C000DEF6CF010895462F4770405D4193B3E0AD
:1012D0000FD0C9F7F6CF462F4F70405D4A3318F054
:1012E000495D31FD4052419302D0A9F7EACFB4E005
:1012F000A6959795879577956795BA95C9F70097BD
:101300006105710508959B01AC010A2E069457955D
:10131000479537952795BA95C9F7620F731F841FB4
:10132000951FA01D0895052E97FB1EF400940E94A2
:10133000AA0957FD07D00E94FC0907FC03D04EF410
:101340000C94AA0950954095309521953F4F4F4FE9
:101350005F4F089590958095709561957F4F8F4F61
:101360009F4F08950E941E0AA59F900DB49F900D57
:10137000A49F800D911D11240895B7FF0C94B2090C
:101380000E94B209821B930B08952F923F924F92B5
:101390005F926F927F928F929F92AF92BF92CF9205
:1013A000DF92EF92FF920F931F93CF93DF93CDB70E
:1013B000DEB7CA1BDB0B0FB6F894DEBF0FBECDBF86
:1013C00009942A88398848885F846E847D848C8457
:1013D0009B84AA84B984C884DF80EE80FD800C8160
:1013E0001B81AA81B981CE0FD11D0FB6F894DEBF43
:1013F0000FBECDBFED010895A1E21A2EAA1BBB1BA3
:10140000FD010DC0AA1FBB1FEE1FFF1FA217B307D0
:10141000E407F50720F0A21BB30BE40BF50B661FE6
:10142000771F881F991F1A9469F7609570958095AA
:1014300090959B01AC01BD01CF010895A29FB00121
:10144000B39FC001A39F700D811D1124911DB29FF8
:0E145000700D811D1124911D0895F894FFCF99
:10145E00010000002564002D002563256425632509
:06146E002E303464000082
:00000001FF
