S01800004D617A655F436F6D7065746974696F6E2E7372656395
S11300000C942A000C9447000C9447000C9447006D
S11300100C942A030C9403030C9451030C9478035A
S11300200C949F030C94C6030C94DC020C94B5024C
S11300300C9447000C9447000C9447000C94470020
S11300400C9447000C9447000C9447000C94470010
S11300500C94470011241FBECFE5D8E0DEBFCDBF0E
S113006010E0A0E6B0E0ECE5F9E002C005900D92E6
S1130070A436B107D9F720E0A4E6B0E001C01D9290
S1130080A837B207E1F70E948C010C94AC040C94DD
S11300900000FC010FB6F894609174007091750033
S11300A080917600909177000FBE309721F06083A5
S11300B07183828393830895DF92EF92FF920F936B
S11300C01F93CF93DF93CDB7DEB72E970FB6F89477
S11300D0DEBF0FBECDBF8C01D62EE42E80E28C8312
S11300E084E08D8318861F821C861B861A861986D7
S11300F01E82198280E48A83CE0101960E9409023D
S1130100FF24F394FE86DD86BE01635F7F4FC80142
S11301100E949E01FE86ED86BE01635F7F4FC8018B
S11301200E949E012E960FB6F894DEBF0FBECDBF7F
S1130130DF91CF911F910F91FF90EF90DF90089581
S11301404BB3982F907F292F30E035952795942F26
S11301509578292B24602BBBE3EDF0E33197F1F77D
S113016000C000009BB39B7F9BBBEFE4F3EC319793
S1130170F1F700C000002BB38F7090E0880F991F37
S1130180880F991F880F991F922F9578892B846067
S11301908BBB83ED90E30197F1F700C000008BB3B4
S11301A08B7F8BBBEFE4F3EC3197F1F700C00000D9
S11301B0089587E893E10197F1F700C000008BB33D
S11301C08B7F8BBB82E00E94A0008CE00E94A00089
S11301D081E00E94A00088E20E94A0008FE00E94BB
S11301E0A00008951F93CF93DF93CDB7DEB76C972C
S11301F00FB6F894DEBF0FBECDBF11E019831C8289
S113020080E48D83188619861A8685E08B871C8680
S11302101D861E861F86188A198A1A8A1C8F1B8EB1
S1130220BE01655E7F4F80E390E00E949E011C8FBB
S11302301B8FBE01655E7F4F80E390E00E949E01AC
S11302401C8F82E08B8FBE01655E7F4F80E390E060
S11302500E949E011C8F83E08B8FBE01655E7F4FE1
S113026080E390E00E949E01CE0101960E945A0212
S11302706C960FB6F894DEBF0FBECDBFDF91CF9161
S11302801F9108951F93CF93DF9300D0CDB7DEB7AE
S113029011E019831A83BE016F5F7F4F89E390E0F9
S11302A00E949E0182E089831A83BE016F5F7F4FA3
S11302B089E390E00E949E0183E089831A83BE0152
S11302C06F5F7F4F89E390E00E949E0184E0898301
S11302D01A83BE016F5F7F4F89E390E00E949E0105
S11302E085E089831A83BE016F5F7F4F89E390E0C5
S11302F00E949E0186E089831A83BE016F5F7F4F4F
S113030089E390E00E949E010E94D9000F900F9013
S1130310DF91CF911F91089580E090E00E94490001
S1130320CB010E943E040E94420145E064E086E362
S113033090E00E945C000E94F200FFCFFC01DB0110
S113034011962C911197211120C041815C9181E07B
S113035090E0BC01052E02C0660F771F0A94E2F7F5
S113036030E002C0220F331F5A95E2F7362F309542
S11303703423232B21830C9002C0880F991F0A94E5
S1130380E2F792818923828308952230C1F481E0C7
S113039090E09C010C9002C0220F331F0A94E2F7F4
S11303A020953181232321830C9002C0880F991F4B
S11303B00A94E2F78095928189238283089541818A
S11303C05C9181E090E0052E02C0880F991F0A9489
S11303D0E2F730E002C0220F331F5A95E2F780950E
S11303E08423282B21830895CF93DF9300D0CDB7A6
S11303F0DEB781E08A8383E08983BE016F5F7F4F2C
S113040086E390E00E949E010F900F90DF91CF91C0
S11304100895CF93DF93EC010E94F4018F81882328
S113042091F08FB780688FBF8A859B859093710008
S11304308093700088859985909367008093660007
S113044089B7816089BF8E818CBF83B7846683BF7F
S11304508D8192B7892B82BFDF91CF9108951F932D
S1130460CF93DF9300D0CDB7DEB711E01A8385E0D8
S11304708983BE016F5F7F4F80E390E00E949E01FD
S11304801A8384E08983BE016F5F7F4F80E390E02D
S11304900E949E011A8286E08983BE016F5F7F4FAE
S11304A080E390E00E949E010F900F90DF91CF9126
S11304B01F910895FC0181898823F1F08FB780682A
S11304C08FBF8289938990936B0080936A002489FB
S11304D03589309373002093720090936D0080935C
S11304E06C0086899789909369008093680089B726
S11304F09189837C892B89BF3FB580853F73382BD5
S11305003FBD81853F7C382B3FBD2EB583812F773E
S1130510282B2EBD94812F7B292B2EBD9285287FDD
S1130520292B2EBD84858DBD83858CBD86858BBD91
S113053085858ABD808989BD878588BD87813C7F03
S11305408370382B3FBD9781969596959370892F2C
S113055090E0880F991F880F991F880F991F277E95
S1130560822B8EBD0E942F0208951F920F920FB608
S11305700F9211242F933F934F935F936F937F9325
S11305808F939F93AF93BF93EF93FF93E091660094
S1130590F09167000995FF91EF91BF91AF919F9101
S11305A08F917F916F915F914F913F912F910F9018
S11305B00FBE0F901F9018951F920F920FB60F92B7
S11305C011242F933F934F935F936F937F938F9354
S11305D09F93AF93BF93EF93FF93E0917000F091DB
S11305E071000995FF91EF91BF91AF919F918F9108
S11305F07F916F915F914F913F912F910F900FBE1B
S11306000F901F9018951F920F920FB60F921124FE
S11306102F933F934F935F936F937F938F939F9306
S1130620AF93BF93EF93FF93E0916E00F0916F004F
S11306300995FF91EF91BF91AF919F918F917F9118
S11306406F915F914F913F912F910F900FBE0F903B
S11306501F9018951F920F920FB60F9211242F938B
S11306603F934F935F936F937F938F939F93AF9336
S1130670BF93EF93FF93E0916400F09165000995B7
S1130680FF91EF91BF91AF919F918F917F916F9166
S11306905F914F913F912F910F900FBE0F901F903C
S11306A018951F920F920FB60F9211242F933F9318
S11306B04F935F936F937F938F939F93AF93BF9366
S11306C0EF93FF93E0916A00F0916B000995FF911D
S11306D0EF91BF91AF919F918F917F916F915F91B6
S11306E04F913F912F910F900FBE0F901F9018952F
S11306F01F920F920FB60F9211242F933F934F9393
S11307005F936F937F938F939F93AF93BF93EF9375
S1130710FF93E0917200F09173000995FF91EF91BE
S1130720BF91AF919F918F917F916F915F914F9105
S11307303F912F910F900FBE0F901F9018951F920D
S11307400F920FB60F9211242F933F934F935F9301
S11307506F937F938F939F93AF93BF93EF93FF9385
S1130760E0916800F09169000995FF91EF91BF91C4
S1130770AF919F918F917F916F915F914F913F9135
S11307802F910F900FBE0F901F9018951F920F92EC
S11307900FB60F9211242F933F934F935F936F9350
S11307A07F938F939F93AF93BF93EF93FF93E091C6
S11307B06C00F0916D000995FF91EF91BF91AF919D
S11307C09F918F917F916F915F914F913F912F9165
S11307D00F900FBE0F901F9018958F929F92AF921B
S11307E0BF92CF92DF92EF92FF92CF93DF93EC010F
S11307F0688179818A819B816115710581059105E3
S113080021F464E279ED8BE597E02DE133EF41E0EB
S113081050E00E94490449015A019B01AC01A7EA36
S1130820B1E40E9468046B017C01ACEEB4EFA50155
S113083094010E947604DC01CB018C0D9D1DAE1D3C
S1130840BF1DB7FF03C00197A109B04888839983EE
S1130850AA83BB839F77DF91CF91FF90EF90DF90C6
S1130860CF90BF90AF909F908F9008950E94ED031A
S1130870089580E690E00E94ED030895A0E0B0E0C2
S11308808093600090936100A0936200B093630032
S11308900895052E97FB1EF400940E94600457FDF2
S11308A007D00E947B0407FC03D04EF40C94600430
S11308B050954095309521953F4F4F4F5F4F089588
S11308C090958095709561957F4F8F4F9F4F0895B8
S11308D00E949D04A59F900DB49F900DA49F800D30
S11308E0911D11240895B7FF0C9468040E946804B4
S11308F0821B930B0895A1E21A2EAA1BBB1BFD01B8
S11309000DC0AA1FBB1FEE1FFF1FA217B307E407EA
S1130910F50720F0A21BB30BE40BF50B661F771F42
S1130920881F991F1A9469F7609570958095909522
S11309309B01AC01BD01CF010895A29FB001B39FFB
S1130940C001A39F700D811D1124911DB29F700DD4
S10F0950811D1124911D0895F894FFCF1F
S107095C0100000092
S9030000FC
