:100000000C942A000C9447000C9447000C94470071
:100010000C94C9040C94A2040C94F0040C941705DD
:100020000C943E050C9465050C947B040C945404CC
:100030000C9447000C9447000C9447000C94470024
:100040000C9447000C9447000C9447000C94470014
:100050000C94470011241FBECFE5D8E0DEBFCDBF12
:1000600010E0A0E6B0E0E6EAFEE002C005900D92E6
:10007000A436B107D9F720E0A4E6B0E001C01D9294
:10008000A437B207E1F70E94C8020C9451070C9400
:100090000000DF92EF92FF920F931F93CF93DF93B5
:1000A000CDB7DEB72E970FB6F894DEBF0FBECDBF2B
:1000B0008C01D62EE42E80E28C8384E08D8318861A
:1000C0001F821C861B861A8619861E82198280E46E
:1000D0008A83CE0101960E94A803FF24F394FE8632
:1000E000DD86BE01635F7F4FC8010E942803FE8644
:1000F000ED86BE01635F7F4FC8010E9428032E96E4
:100100000FB6F894DEBF0FBECDBFDF91CF911F9128
:100110000F91FF90EF90DF900895DF92EF92FF92A2
:100120000F931F93CF93DF93EC01E62EF42ED22E84
:100130000115110521F482B7887F82BF03C083B700
:10014000846083BFB80180E090E00E94320620E026
:1001500030E048EC52E40E94910520E030E040E8B5
:1001600053E40E94E4060E9403066CBFD1100BC04A
:1001700041E06E2DCE010E947E0340E06F2DCE0146
:100180000E947E030AC040E06E2DCE010E947E03D5
:1001900041E06F2DCE010E947E03DF91CF911F9130
:1001A0000F91FF90EF90DF9008954BB3982F907FC1
:1001B000292F30E035952795942F9578292B2460A9
:1001C0002BBBE3EDF0E33197F1F700C000009BB3E8
:1001D0009B7F9BBBEFE4F3EC3197F1F700C000008D
:1001E0002BB38F7090E0880F991F880F991F880F8D
:1001F000991F922F9578892B84608BBB83ED90E3B8
:100200000197F1F700C000008BB38B7F8BBBEFE44D
:10021000F3EC3197F1F700C00000089587E893E10F
:100220000197F1F700C000008BB38B7F8BBB82E09E
:100230000E94D5008CE00E94D50081E00E94D5008C
:1002400088E20E94D5008FE00E94D500089590E4D6
:10025000699F800D112480580E94D50008950F9346
:100260001F93CF93DF93EC0111E000E04FC02BB35D
:1002700022602BBB9081907F892F90E09595879588
:100280002778822B84608BBB83ED90E30197F1F795
:1002900000C000008BB38B7F8BBB8FE493EC019786
:1002A000F1F700C000002BB322602BBB90819F7040
:1002B000892F90E0880F991F880F991F880F991F29
:1002C0002778822B84608BBB83ED90E30197F1F755
:1002D00000C000008BB38B7F8BBB8FE493EC019746
:1002E000F1F700C000001F5F103129F461E080E0E9
:1002F0000E9427010AC0103241F481E00E94D5001B
:1003000060E080E00E94270110E00F5FFE01E00F37
:10031000F11D80818111ABCFDF91CF911F910F91A2
:100320000895CF92DF92EF92FF920F931F93CF9396
:10033000DF93CDB7DEB76C970FB6F894DEBF0FBE74
:10034000CDBF7C01C42ED22E11E019831C8280E423
:100350008D83188619861A8685E08B871C861D86F4
:100360001E861F86188A198A1A8A1C8F6B8FBE01F7
:10037000655E7F4FC7010E9428031C8FCB8EBE0194
:10038000655E7F4FC7010E9428031C8FDB8EBE0174
:10039000655E7F4FC7010E9428031C8F0B8FBE0133
:1003A000655E7F4FC7010E942803CE0101960E941F
:1003B000F9036C960FB6F894DEBF0FBECDBFDF9188
:1003C000CF911F910F91FF90EF90DF90CF90089504
:1003D000EF92FF920F931F93813099F441E060E018
:1003E00080E390E00E947E0383EC99E00197F1F7AF
:1003F00000C0000040E060E080E390E00E947E03E7
:100400003EC0823099F441E061E080E390E00E94D8
:100410007E0383EC99E00197F1F700C0000040E013
:1004200061E080E390E00E947E0329C0833099F46C
:1004300041E062E080E390E00E947E0383EC99E07B
:100440000197F1F700C0000040E062E080E390E037
:100450000E947E0314C0843091F441E063E080E3A5
:1004600090E00E947E0383EC99E00197F1F700C0D1
:10047000000040E063E080E390E00E947E0388B7E4
:1004800085FFFDCF806288BF1DBC1CBC8EB58F7BF5
:100490008EBD28B725FFFDCF96B547B550E0542F48
:1004A0004427052E000C660B770B7A018B01E92A95
:1004B000C801B701206228BF0E94320620E034E262
:1004C00044EF55E40E94910520E030E84BEA53E404
:1004D0000E94E40620E030E040E05FE30E94E40692
:1004E00020E030E048EC52E40E94E4062EB520649F
:1004F0002EBD1F910F91FF90EF9008951F93CF9302
:10050000DF9300D0CDB7DEB711E019831A83BE01A7
:100510006F5F7F4F89E390E00E94280382E0898328
:100520001A83BE016F5F7F4F89E390E00E9428032A
:1005300083E089831A83BE016F5F7F4F89E390E078
:100540000E94280384E089831A83BE016F5F7F4F76
:1005500089E390E00E94280385E089831A83BE0125
:100560006F5F7F4F89E390E00E94280386E08983D4
:100570001A83BE016F5F7F4F89E390E00E942803DA
:100580000E940E010F900F90DF91CF911F9108955F
:100590000E947E0245E064E086E390E00E9449000C
:1005A00003E022E041E060E080E390E00E949101FE
:1005B00081E00E94E80120E030E040E752E40E9440
:1005C0008C0588230CF182E00E94E80120E030E0F5
:1005D00040E752E40E948C058823B4F083E00E9437
:1005E000E80120E030E040E752E40E948C058823D7
:1005F0005CF084E00E94E80120E030E040E752E453
:100600000E948C058823D4F400E010E020E045E04F
:1006100064E086E390E00E948D0080E690E00E9416
:100620002F012FE78AE196E0215080409040E1F7CA
:1006300000C0000081E00E94D500BACF00E510E0C4
:1006400020E045E064E086E390E00E948D00B0CFBA
:10065000FC01DB0111962C911197211120C04181E1
:100660005C9181E090E0BC01052E02C0660F771F0F
:100670000A94E2F730E002C0220F331F5A95E2F7E6
:10068000362F30953423232B21830C9002C0880F02
:10069000991F0A94E2F79281892382830895223078
:1006A000C1F481E090E09C010C9002C0220F331F46
:1006B0000A94E2F720953181232321830C9002C014
:1006C000880F991F0A94E2F780959281892382838B
:1006D000089541815C9181E090E0052E02C0880F71
:1006E000991F0A94E2F730E002C0220F331F5A9597
:1006F000E2F780958423282B21830895FC019281C1
:1007000021E030E0062E02C0220F331F0A94E2F7E8
:1007100050E002C0440F551F6A95E2F72095292347
:10072000422B42830895CF93DF9300D0CDB7DEB73D
:1007300081E08A8383E08983BE016F5F7F4F86E318
:1007400090E00E9428030F900F90DF91CF910895C1
:10075000CF93DF93EC010E9493038F81882391F064
:100760008FB780688FBF8A859B8590937100809337
:10077000700088859985909367008093660089B79B
:10078000816089BF8E818CBF83B7846683BF8D8172
:1007900092B7892B82BFDF91CF9108951F93CF939A
:1007A000DF9300D0CDB7DEB711E01A8385E08983EF
:1007B000BE016F5F7F4F80E390E00E9428031A83A1
:1007C00084E08983BE016F5F7F4F80E390E00E94E9
:1007D00028031A8286E08983BE016F5F7F4F80E322
:1007E00090E00E9428030F900F90DF91CF911F910E
:1007F0000895FC0181898823F1F08FB780688FBF4D
:100800008289938990936B0080936A00248935894B
:10081000309373002093720090936D0080936C006E
:1008200086899789909369008093680089B7918938
:10083000837C892B89BF3FB580853F73382B3FBDB3
:1008400081853F7C382B3FBD2EB583812F77282BA8
:100850002EBD94812F7B292B2EBD9285287F292B9D
:100860002EBD84858DBD83858CBD86858BBD85859C
:100870008ABD808989BD878588BD87813C7F8370DB
:10088000382B3FBD9781969596959370892F90E070
:10089000880F991F880F991F880F991F277E822B19
:1008A0008EBD0E94CE0308951F920F920FB60F9235
:1008B00011242F933F934F935F936F937F938F9365
:1008C0009F93AF93BF93EF93FF93E0916600F091F6
:1008D00067000995FF91EF91BF91AF919F918F9123
:1008E0007F916F915F914F913F912F910F900FBE2C
:1008F0000F901F9018951F920F920FB60F92112410
:100900002F933F934F935F936F937F938F939F9317
:10091000AF93BF93EF93FF93E0917000F09171005C
:100920000995FF91EF91BF91AF919F918F917F9129
:100930006F915F914F913F912F910F900FBE0F904C
:100940001F9018951F920F920FB60F9211242F939C
:100950003F934F935F936F937F938F939F93AF9347
:10096000BF93EF93FF93E0916E00F0916F000995B4
:10097000FF91EF91BF91AF919F918F917F916F9177
:100980005F914F913F912F910F900FBE0F901F904D
:1009900018951F920F920FB60F9211242F933F9329
:1009A0004F935F936F937F938F939F93AF93BF9377
:1009B000EF93FF93E0916400F09165000995FF913A
:1009C000EF91BF91AF919F918F917F916F915F91C7
:1009D0004F913F912F910F900FBE0F901F90189540
:1009E0001F920F920FB60F9211242F933F934F93A4
:1009F0005F936F937F938F939F93AF93BF93EF9387
:100A0000FF93E0916A00F0916B000995FF91EF91DF
:100A1000BF91AF919F918F917F916F915F914F9116
:100A20003F912F910F900FBE0F901F9018951F921E
:100A30000F920FB60F9211242F933F934F935F9312
:100A40006F937F938F939F93AF93BF93EF93FF9396
:100A5000E0917200F09173000995FF91EF91BF91C1
:100A6000AF919F918F917F916F915F914F913F9146
:100A70002F910F900FBE0F901F9018951F920F92FD
:100A80000FB60F9211242F933F934F935F936F9361
:100A90007F938F939F93AF93BF93EF93FF93E091D7
:100AA0006800F09169000995FF91EF91BF91AF91B6
:100AB0009F918F917F916F915F914F913F912F9176
:100AC0000F900FBE0F901F9018951F920F920FB6A8
:100AD0000F9211242F933F934F935F936F937F93C4
:100AE0008F939F93AF93BF93EF93FF93E0916C002D
:100AF000F0916D000995FF91EF91BF91AF919F919A
:100B00008F917F916F915F914F913F912F910F90B6
:100B10000FBE0F901F9018950E946F0608F481E099
:100B200008950E94A5050C94AA060E94A30658F0F9
:100B30000E949C0640F029F45F3F29F00C94930634
:100B400051110C94DE060C9499060E94BB0668F3C2
:100B50009923B1F3552391F3951B550BBB27AA2776
:100B600062177307840738F09F5F5F4F220F331FB0
:100B7000441FAA1FA9F335D00E2E3AF0E0E832D078
:100B800091505040E695001CCAF72BD0FE2F29D07B
:100B9000660F771F881FBB1F261737074807AB074D
:100BA000B0E809F0BB0B802DBF01FF2793585F4FC2
:100BB0003AF09E3F510578F00C9493060C94DE06B3
:100BC0005F3FE4F3983ED4F3869577956795B795A4
:100BD000F7959F5FC9F7880F911D9695879597F9AF
:100BE0000895E1E0660F771F881FBB1F6217730728
:100BF0008407BA0720F0621B730B840BBA0BEE1F3D
:100C000088F7E09508950E94C30688F09F5798F0F2
:100C1000B92F9927B751B0F0E1F0660F771F881F01
:100C2000991F1AF0BA95C9F714C0B13091F00E941B
:100C3000DD06B1E008950C94DD06672F782F882734
:100C4000B85F39F0B93FCCF3869577956795B39542
:100C5000D9F73EF490958095709561957F4F8F4FB1
:100C60009F4F0895E89409C097FB3EF490958095B6
:100C7000709561957F4F8F4F9F4F9923A9F0F92F62
:100C800096E9BB279395F695879577956795B795E0
:100C9000F111F8CFFAF4BB0F11F460FF1BC06F5FC6
:100CA0007F4F8F4F9F4F16C0882311F096E911C0D8
:100CB000772321F09EE8872F762F05C0662371F0F9
:100CC00096E8862F70E060E02AF09A95660F771F0D
:100CD000881FDAF7880F9695879597F90895990FE9
:100CE0000008550FAA0BE0E8FEEF16161706E807F6
:100CF000F907C0F012161306E407F50798F0621B17
:100D0000730B840B950B39F40A2661F0232B242BEB
:100D1000252B21F408950A2609F4A140A6958FEF0A
:100D2000811D811D089597F99F6780E870E060E05C
:100D300008959FEF80EC089500240A941616170674
:100D400018060906089500240A94121613061406BC
:100D500005060895092E0394000C11F4882352F01F
:100D6000BB0F40F4BF2B11F460FF04C06F5F7F4FD7
:100D70008F4F9F4F089557FD9058440F551F59F0BE
:100D80005F3F71F04795880F97FB991F61F09F3F78
:100D900079F087950895121613061406551FF2CFA1
:100DA0004695F1DF08C0161617061806991FF1CFF1
:100DB00086957105610508940895E894BB27662718
:100DC0007727CB0197F908950E94F7060C94AA069D
:100DD0000E949C0638F00E94A30620F0952311F093
:100DE0000C9493060C94990611240C94DE060E9430
:100DF000BB0670F3959FC1F3950F50E0551F629F9E
:100E0000F001729FBB27F00DB11D639FAA27F00D63
:100E1000B11DAA1F649F6627B00DA11D661F829F8A
:100E20002227B00DA11D621F739FB00DA11D621F6F
:100E3000839FA00D611D221F749F3327A00D611D8C
:100E4000231F849F600D211D822F762F6A2F11246E
:100E50009F5750409AF0F1F088234AF0EE0FFF1FA1
:100E6000BB1F661F771F881F91505040A9F79E3FF8
:100E7000510580F00C9493060C94DE065F3FE4F37A
:100E8000983ED4F3869577956795B795F795E7954E
:100E90009F5FC1F7FE2B880F911D9695879597F957
:060EA0000895F894FFCF55
:040EA6005965730017
:00000001FF
